:020000040800F2
:10000000D8080020650100081D020008030200084E
:1000100019020008FD010008250300080000000087
:100020000000000000000000000000004F02000877
:100030000102000800000000490200085102000807
:100040007F0100087F0100087F0100087F01000890
:100050007F0100087F0100087F0100087F01000880
:100060007F0100087F0100087F0100087F01000870
:100070007F0100087F0100087F0100087F01000860
:100080007F0100087F010008000000007F010008D8
:100090007F0100087F0100087F0100087F01000840
:1000A0007F0100087F0100087F0100087F01000830
:1000B0007F010008000000007F0100080000000030
:1000C0007F010008000000007F0100087F01000898
:1000D0007F01000800000000000000000000000098
:1000E00000000000000000007F0100080000000088
:1000F0000000000000000000000000000000000000
:100100007F01000800000000000000007F010008DF
:1001100000000000000000000000000000000000DF
:1001200000000000000000000000000000000000CF
:1001300000000000000000000000000000000000BF
:100140000000000000000000000000007F01000827
:10015000DFF80CD000F040F80048004739070008ED
:10016000D80800200648804706480047FEE7FEE71B
:10017000FEE7FEE7FEE7FEE7FEE7FEE7FEE7FEE757
:100180005902000851010008D2B201E000F8012B29
:10019000491EFBD270470022F6E710B513460A4607
:1001A00004461946FFF7F0FF204610BD30B50B4658
:1001B000014600202022012409E021FA02F59D4297
:1001C00005D303FA02F5491B04FA02F52844151E6B
:1001D000A2F10102F1DC30BD064C074D06E0E068FB
:1001E00040F0010394E8070098471034AC42F6D37E
:1001F000FFF7B2FF141000083410000800BFFEE73C
:10020000704700BFFEE710B500F07AFC04460CB161
:10021000012010BD0020FCE700BFFEE77047000092
:1002200010B5002807DA0A07140E054A00F00F037C
:100230001B1FD45403E00A07130E024A135410BDC7
:1002400018ED00E000E400E07047002070477047C0
:1002500010B500F03DF910BD10B52948006840F018
:1002600001002749086000BF2548006810F0020F10
:10027000FAD023484068234908402149486008468D
:100280004068214908401E4948600846406820F4FB
:10029000400048600846006B1C4908401849086344
:1002A000084600681A490840154908600846C06AAF
:1002B000184908401249C8620846006B40F2031111
:1002C00088430F4908630846006B20F480300863B8
:1002D0000846006B20F0004008630846406B20F0A1
:1002E000010048630C48006820F48030C1F8C00069
:1002F0004FF0000088600949086000F0D5FD10BD8E
:10030000001002400C00FF08FFFFC277BFFFFFBFD5
:10031000FFFFF2FEF0FFFF3FC0100240CC10024092
:100320000020704700BFFEE70FB4054B10B503A9CE
:10033000044A029800F018F810BC5DF814FB0000A5
:10034000210500087400002002E008C8121F08C13F
:10035000002AFAD170477047002001E001C1121F46
:10036000002AFBD1704700002DE9FF4F89B09B4662
:100370000446002597E0252833D10027641C4E4908
:10038000B84601222378203B02FA03F0084202D04B
:100390000743641CF6E720782E2819D114F8010FC2
:1003A00047F004072A280ED06FF02F022078A0F122
:1003B000300109290CD808EB880102EB410100EB60
:1003C0000108641CF2E70A98641C50F8048B0A9038
:1003D000207800286BD0642808D0692806D07528BA
:1003E00020D05A460B9990476D1C5BE00A994FF05C
:1003F0000A0901C90A91002804DAC0F100004FF08F
:100400002D0102E0390504D52B218DF820100121A2
:1004100003E0F90704D02021F7E78A4608AE0EE092
:100420000021FAE70A994FF00A0901C90A91F7E792
:100430004946FFF7BBFE01F1300106F8011D002817
:10044000F6D1ADEB060000F12009780701D44FF09A
:100450000108C84502DDA8EB090000E00020804645
:10046000002706E008A85A46C05D0B9990476D1C0E
:100470007F1C5745F6DB04E030205A460B99904725
:100480006D1CB8F10001A8F10108F5DC05E016F8D3
:10049000010B5A460B9990476D1CB9F10001A9F167
:1004A0000109F4DC641C207800287FF464AF0DB0EF
:1004B0002846BDE8F08F00000928010003490860C4
:1004C00000BF024909680029FBD1704700000020E5
:1004D0000448006820B103480068401E01490860D4
:1004E000704700000000002070B5064626B1012EBE
:1004F00008D0022E12D10BE0FFF7A7FE0446E5B2AA
:10050000284670BDFFF77FFE0446E5B22846F8E7AF
:10051000FFF706FF0446E5B22846F2E70120F0E7C0
:1005200070B504460D46E1B2064800F02BFD00BF51
:1005300040F20771034800F04EFD0028F8D0204635
:1005400070BD00000044004070B505462A48854251
:1005500000D1002440F2115000F0A2FA274931F8EE
:10056000140000F09DFA264850F8242001214FF095
:10057000904000F049F8234850F8242001214FF022
:10058000904000F041F81E4850F82430012202212A
:100590004FF0904000F06BF8194850F824300122D9
:1005A00000214FF0904000F089F8164850F82430B0
:1005B000012202214FF0904000F059F8114850F804
:1005C0002430012200214FF0904000F077F82846B7
:1005D00000F0DCFC4FF4E131284600F091FC0421EE
:1005E000284600F007FD0821284600F00BFD2846AC
:1005F00000F0ECFC70BD000000440040280000202A
:100600002C00002030000020F0B503461C6A5D6A13
:1006100000200DE001268640164207D087000F26F5
:10062000BE40B443860001FA06F63443461CB0B21D
:100630000828EFD3082011E00126864016420BD08F
:10064000A0F10806B7000F26BE40B543A0F108068A
:10065000B60001FA06F63543461CB0B21028EBD3BB
:100660001C625D62F0BD8162704781617047F0B5C8
:1006700004460D4616462168E268002019E001276D
:1006800087401F4213D04FEA400C032707FA0CF7AC
:10069000B943470005FA07F739434FEA400C0327EF
:1006A00007FA0CF7BA43470006FA07F73A43471C24
:1006B000B8B21028E3D32160E260F0BDF0B5044683
:1006C0000E46012E03D167681F43676002E067682A
:1006D0009F436760A168A2F57F47FF3F16D1E56B96
:1006E00000200EE0012787401F4208D04FEA400C4F
:1006F000032707FA0CF73943012787403D43471C7E
:10070000B8B21028EED3A160E56314E000200FE03A
:10071000012787401F4209D04FEA400C032707FA00
:100720000CF7B943470002FA07F73943471CB8B240
:100730001028EDD3A160F0BD00244FF40B712048C8
:10074000FFF729FD4FF40D711E48FFF724FD1E48E9
:10075000FFF7FAFE00F0ACFB0120FFF7C5FE00201A
:1007600000F060F80546294618A0FFF7DDFD0120DE
:1007700000F058F80546294618A0FFF7D5FD0220DD
:1007800000F050F80546294618A0FFF7CDFD0320DC
:1007900000F048F80546294618A0FFF7C5FD1B489C
:1007A00001680AA0FFF7C0FD08E02146621CD4B230
:1007B00017A0FFF7B9FD6420FFF780FEF5E7000002
:1007C00078000020A4020020004400400D0A434BA2
:1007D0005F53595320697320256400000D0A434B71
:1007E0005F41484220697320256400000D0A434B95
:1007F0005F41504231206973202564000D0A434B4C
:100800005F415042322069732025640004000020BB
:1008100020202020576169742025642053656321BE
:10082000200A00002DE9F04F92B084460023119376
:10083000109300240020002580460F9300210E9382
:100840000D930C9300220B930A930993089381460E
:100850000026002788A393E8004CDB68CDE905BE9D
:10086000CDF810A007930FF2142ADAE9003ACDE987
:10087000023A0FF2082ADAE9003ACDE9003A824B4F
:100880005B68C3F381031193119B23B1012B04D047
:10089000022B3ED103E07D4D3DE07C4D3BE07A4BA9
:1008A0005B68C3F38342784B5B68C3F3C0630B930D
:1008B000754BDB6ADB0F0A930B9B0BB1113200E027
:1008C000921C0A9B012B00D11F326F4B5B68C3F354
:1008D000004309936C4BDB6AC3F380730893099B55
:1008E0009BB1694BDB6A03F00F0303F10109089B1D
:1008F0002BB9664BB3FBF9F303FB02F508E0644B3D
:10090000B3FBF9F303FB02F502E0624B02FB03F5D4
:1009100001E05E4D00BF00BF5B4B5B68C3F3031695
:1009200004AB9F5D25FA07F8574B5B68C3F30226BB
:1009300002AB9F5D28FA07F30F93534B5B68C3F339
:10094000C2261DF8067028FA07F1BCF1070F72D213
:10095000DFE80CF00406080A0C5B6A00284687E012
:10096000404685E00F9883E0084681E0464B1B6BCC
:1009700003F48073B3F5807F0CD0434B1B6B03F4FF
:100980008033B3F5803F02D0434B0E933BE0434BA3
:100990000E9338E03C4B5B68C3F3813310933A4BC2
:1009A0001B6BDC0F109B33B1012B0DD0022B14D02D
:1009B000032B26D11CE014B94B080E9303E003234C
:1009C000B1FBF3F30E931DE014B98B080E9303E013
:1009D0000523B1FBF3F30E9314E024B90623B1FB16
:1009E000F3F30E9303E00723B1FBF3F30E9309E057
:1009F00014B9CB080E9303E00923B1FBF3F30E9374
:100A000000E000BF00BF0E9832E01F4B1B6B03F0ED
:100A10004003402B03D048F212030D9302E04FF441
:100A200000430D930D9823E0174B1B6B13F0030F3E
:100A300002D10C9119E01AE0134B1B6B03F0030376
:100A4000012B01D10C9510E00F4B1B6B03F003033E
:100A5000022B02D19B030C9307E00B4B1B6B03F0A3
:100A60000303032B01D1094B0C930C9800E000BF4A
:100A700000BF12B0BDE8F08F0000000000000000D1
:100A800001020304060708090010024000127A0060
:100A9000006CDC0200093D00809FD500003FAB01E7
:100AA000064901EB9011096800F01F0301229A40EA
:100AB0001143024A02EB901211607047001002408D
:100AC000064901EB9011096800F01F0301229A40CA
:100AD0009143024A02EB90121160704700100240ED
:100AE000064901EB9011096800F01F0301229A40AA
:100AF0001143024A02EB901211607047001002404D
:100B000070B500250024642600F0C8F810214B4879
:100B1000FFF7ABFD00BF03E0FF2000F049F96D1CBB
:100B2000642DF9D310214548FFF79DFD00BF9522A4
:100B30000021084600F084F80446012C04D030005F
:100B4000A6F10101CEB2F2D1012C01D0FF2070BD7F
:100B500010213A48FFF789FDFF2000F029F9102104
:100B60003648FFF780FD87224FF4D571082000F04A
:100B700067F80446012C01D0FF20E8E700F0FCF8FC
:100B800000F0FAF800F0F8F800F0F6F810212B4821
:100B9000FFF76BFDFF2000F00BF900BF1021274885
:100BA000FFF761FD01220021372000F049F80446DB
:100BB00010212248FFF759FDFF2000F0F9F810211D
:100BC0001E48FFF750FD01229107292000F038F858
:100BD000044610211948FFF748FDFF2000F0E8F80F
:100BE000002CDBD110211548FFF73FFDFF2000F05E
:100BF000DFF810211148FFF736FD00BF0122002168
:100C00003A2000F01DF8044624B13000A6F101019D
:100C1000CEB2F3D10CB1FF2099E700F0ADF800F0AF
:100C2000ABF800F0A9F800F0A7F810210348FFF78F
:100C30001CFDFF2000F0BCF8002088E700140048ED
:100C40002DE9F04106460C4617464FF01F0846F0C6
:100C5000400000F0ADF8200E00F0AAF8C4F3074001
:100C600000F0A6F8C4F3072000F0A2F8E0B200F00C
:100C70009FF8384600F09CF800BFFF2000F098F87D
:100C8000054615F0800F06D05FEA0800A8F10101C3
:100C900001F0FF08F1D12846BDE8F08100B587B02A
:100CA000382200211B48FFF7AFFC38230022022125
:100CB0001848FFF7DCFC3823032200211548FFF712
:100CC000FDFC1023002201211348FFF7D0FC102364
:100CD000032200211048FFF7F1FC40F20C60FFF7FF
:100CE000DFFE4FF4827000900020019002900320FC
:100CF0000590002004904FF4007003901820069097
:100D00006946064800F01FF8044800F009F807B0EB
:100D100000BD0000000400480014004800300140FD
:100D2000016841F04001016070470146C86880B227
:100D30007047C160704702469068084201D00120A8
:100D400070470020FCE702460020106800F4415084
:100D50000B6818434B6818438B681843CB681843DB
:100D60000B6918434B6918438B6918431060D369AA
:100D700023F40063D361704710B5002400BF022143
:100D80000A48FFF7D8FF0028F9D0FF210748FFF7EE
:100D9000D0FF00BF01210548FFF7CDFF0028F9D0A3
:100DA0000248FFF7C2FFC4B2204610BD0030014028
:100DB00010B5044600BF02210A48FFF7BCFF002817
:100DC000F9D021460748FFF7B4FF00BF01210548CD
:100DD000FFF7B1FF0028F9D00248FFF7A6FFC0B225
:100DE00010BD000000300140002000212B4A126895
:100DF00042F48032294B1A6000BF401C274A126817
:100E000002F4003111B9B0F5006FF6D1234A12682F
:100E100012F4003F00D17047204A52681F4B5A60BD
:100E20001A46526842F400525A601A46526842F416
:100E300080625A601A465268194B1A40174B5A6022
:100E40001A46D26A22F04042DA621A46D26A42F068
:100E50000102DA621A465268124B1A430F4B5A606B
:100E60001A46126842F080721A6000BF0B4A12687C
:100E700012F0007FFAD0094A526822F00302074BB1
:100E80005A601A46526842F002025A6000BF034A92
:100E9000526812F0080FFAD000BFBCE70010024001
:100EA000FFFFC2770000290810B5FFF79DFF10BDB6
:100EB00010B5124800684FF47A71B0FBF1F4601E6F
:100EC000B0F1807F01D301200FE0601E4FF0E021E0
:100ED00048610F214FF0FF30FFF7A2F900204FF0DB
:100EE000E021886107200861002008B100BFFEE70B
:100EF0000021481EFFF794F910BD000004000020F7
:100F00002DE9F04704460D460027B846B9460026AD
:100F10001B48201807D0B0F5744F09D10620FFF701
:100F200081FC074605E00220FFF77CFC074600E055
:100F300000BF00BF206810F4004F10D0780000EB15
:100F40005500B0FBF5F64FF6F07006EA000806F023
:100F50000709E16848EA09000143E1600EE007EB98
:100F60005500B0FBF5F64FF6F07006EA000806F003
:100F70000F09E16848EA09000143E160BDE8F08734
:100F800000BCFFBFC1F308028262704710B504467F
:100F90000D4820180BD0B0F5744F11D140F20E302F
:100FA000FFF79EFD40F20E30FFF78AFD09E040F2A8
:100FB0001140FFF795FD40F21140FFF781FD00E081
:100FC00000BF00BF10BD000000BCFFBF016841F0C2
:100FD00001010160704710B5024602EB91100068F4
:100FE00001F01F040123A340184201D0012010BDCD
:100FF0000020FCE7026822F00402026002680A4353
:1010000002607047026822F00802026002680A4328
:1010100002607047341000080000002078000000D3
:1010200048030008AC1000087800002060080000A9
:10103000580300080000000000F36F060008004895
:1010400000080048000800480008004800040000AC
:10105000000800000010000004000000110700005C
:101060000400000008000000130513051305130514
:10107000000000480008004800140048010000007B
:101080000020000080000000110513051605000077
:1010900001000000002000008000000000020500A8
:0C10A0000D07050707000000000000001D
:04000005080001519D
:00000001FF
