:020000040800F2
:105000008004002065510008E7510008DF510008C6
:10501000E3510008D9510008E952000800000000DF
:105020000000000000000000000000001352000813
:10503000DD51000800000000115200081552000860
:105040007F5100087F5100087F5100087F51000800
:105050007F5100087F5100087F5100087F510008F0
:105060007F5100087F5100087F5100087F510008E0
:105070007F5100087F5100087F5100087F510008D0
:105080007F5100087F510008000000007F51000898
:105090007F5100087F5100087F5100087F510008B0
:1050A0007F5100087F5100087F5100087F510008A0
:1050B0007F510008000000007F5100080000000040
:1050C0007F510008000000007F5100087F51000858
:1050D0007F510008000000000000000000000000F8
:1050E00000000000000000007F51000800000000E8
:1050F00000000000000000000000000000000000B0
:105100007F51000800000000000000007F510008EF
:10511000000000000000000000000000000000008F
:10512000000000000000000000000000000000007F
:10513000000000000000000000000000000000006F
:105140000000000000000000000000007F51000887
:10515000DFF80CD000F02EF800480047095900088D
:10516000800400200648804706480047FEE7FEE727
:10517000FEE7FEE7FEE7FEE7FEE7FEE7FEE7FEE707
:10518000215200085151000830B50B46014600205D
:105190002022012409E021FA02F59D4205D303FAF9
:1051A00002F5491B04FA02F52844151EA2F101027A
:1051B000F1DC30BD064C074D06E0E06840F001032D
:1051C00094E8070098471034AC42F6D3FFF7C4FFC9
:1051D000346000085460000800BFFEE7704700BF5D
:1051E000FEE700BFFEE7704710B5002807DA0A07A0
:1051F000140E054A00F00F031B1FD45403E00A07E6
:10520000130E024A135410BD18ED00E000E400E054
:105210007047704710B500F059FB00F03BF910BD26
:1052200010B52948006840F001002749086000BF18
:105230002548006810F0020FFAD02348406823493F
:1052400008402149486008464068214908401E49F5
:1052500048600846406820F4400048600846006BFB
:105260001C49084018490863084600681A49084064
:10527000154908600846C06A184908401249C862C2
:105280000846006B40F2031188430F490863084643
:10529000006B20F4803008630846006B20F000406B
:1052A00008630846406B20F0010048630C48006822
:1052B00020F48030C1F8C0004FF000008860094938
:1052C000086000F001FE10BD001002400C00FF0855
:1052D000FFFFC277BFFFFFBFFFFFF2FEF0FFFF3F00
:1052E000C0100240CC10024000BFFEE70FB4054BD7
:1052F00010B503A9044A029800F018F810BC5DF834
:1053000014FB0000715500087800002002E008C876
:10531000121F08C1002AFAD170477047002001E02F
:1053200001C1121F002AFBD1704700002DE9FF4F79
:1053300089B09B460446002597E0252833D10027F5
:10534000641C4E49B84601222378203B02FA03F040
:10535000084202D00743641CF6E720782E2819D1B2
:1053600014F8010F47F004072A280ED06FF02F021F
:105370002078A0F1300109290CD808EB880102EB54
:10538000410100EB0108641CF2E70A98641C50F824
:10539000048B0A90207800286BD0642808D06928F4
:1053A00006D0752820D05A460B9990476D1C5BE0BB
:1053B0000A994FF00A0901C90A91002804DAC0F1DC
:1053C00000004FF02D0102E0390504D52B218DF8A6
:1053D0002010012103E0F90704D02021F7E78A46D5
:1053E00008AE0EE00021FAE70A994FF00A0901C958
:1053F0000A91F7E74946FFF7C7FE01F1300106F8C9
:10540000011D0028F6D1ADEB060000F12009780758
:1054100001D44FF00108C84502DDA8EB090000E007
:1054200000208046002706E008A85A46C05D0B9978
:1054300090476D1C7F1C5745F6DB04E030205A4630
:105440000B9990476D1CB8F10001A8F10108F5DC3B
:1054500005E016F8010B5A460B9990476D1CB9F1FF
:105460000001A9F10109F4DC641C207800287FF414
:1054700064AF0DB02846BDE8F08F00000928010098
:105480000349086000BF024909680029FBD1704741
:10549000040000200448006820B103480068401E52
:1054A00001490860704700000400002010B52C4B33
:1054B0001B6883432A4C2360231D1B688343241DE0
:1054C0002360231D1B688343241D2360231D1B6849
:1054D0008343241D236011B101290ED105E0204B27
:1054E0001B6803431E4C236008E01D4B1B1D1B68FB
:1054F00003431B4C241D236000E000BF00BF22B10A
:10550000012A0FD0022A27D119E0154B08331B6856
:105510000343134C08342360231D1B688343241D5D
:1055200023601AE00E4B08331B6883430C4C08348D
:105530002360231D1B680343241D23600DE0084BDB
:1055400008331B680343064C08342360231D1B6883
:105550000343241D236000E000BF00BF10BD000016
:105560000004014001490860704700001404014034
:1055700070B504460D46E1B2064800F013FD00BFC9
:1055800040F20771034800F036FD0028F8D02046AD
:1055900070BD00000044004070B505462A488542B1
:1055A00000D1002440F2115000F0AEFB274931F841
:1055B000140000F0A9FB264850F8242001214FF0E8
:1055C000904000F0E7F8234850F8242001214FF0E4
:1055D000904000F0DFF81E4850F8243001220221EC
:1055E0004FF0904000F00DF9194850F82430012296
:1055F00000214FF0904000F02BF9164850F824306D
:10560000012202214FF0904000F0FBF8114850F8C1
:105610002430012200214FF0904000F019F9284673
:1056200000F0C4FC4FF4E131284600F079FC04217D
:10563000284600F0EFFC0821284600F0F3FC28463D
:1056400000F0D4FC70BD0000004400402C0000209D
:10565000300000203400002070B504460D46174984
:1056600031F8140000F050FB4FF4C06000F04CFB28
:10567000134951F82430134951F8240000221146EF
:1056800000F0BFF8012D17D10F49085D002202215B
:1056900000F0A6F90D4A115D0D4A105D00F064FBA3
:1056A0000C4951F8240001220021FFF7FFFE0949AF
:1056B00051F82400FFF756FF70BD0000580000208D
:1056C0004C00002040000020720000206F000020ED
:1056D0006C0000206000002010B50446044A52F817
:1056E0002410044A52F8240000F083F810BD000092
:1056F0004C0000204000002010B50446104931F84D
:10570000140000F001FB0F4951F824300E4951F804
:1057100024000022012100F074F80A4951F82430D5
:10572000094951F824000322002100F091F80548AE
:1057300050F82400044951F82410886210BD00007C
:10574000380000201C0000200C000020034951F804
:105750002010034A52F82020916270471C0000205C
:105760000C000020034951F82010034A52F8202071
:10577000916170471C0000200C000020034951F883
:105780002010034A52F82020D16270471C000020EC
:105790000C000020F0B503461C6A5D6A00200DE095
:1057A00001268640164207D087000F26BE40B4432C
:1057B000860001FA06F63443461CB0B20828EFD33F
:1057C000082011E00126864016420BD0A0F1080601
:1057D000B7000F26BE40B543A0F10806B60001FA97
:1057E00006F63543461CB0B21028EBD31C625D624E
:1057F000F0BD02461069084201D001207047002028
:10580000FCE7F0B504460D4616462168E268002024
:1058100019E0012787401F4213D04FEA400C0327AD
:1058200007FA0CF7B943470005FA07F739434FEA7F
:10583000400C032707FA0CF7BA43470006FA07F7AC
:105840003A43471CB8B21028E3D32160E260F0BDB0
:10585000F0B504460E46012E03D167681F4367600A
:1058600002E067689F436760A168A2F57F47FF3F3A
:1058700016D1E56B00200EE0012787401F4208D0BB
:105880004FEA400C032707FA0CF7394301278740FA
:105890003D43471CB8B21028EED3A160E56314E085
:1058A00000200FE0012787401F4209D04FEA400C3B
:1058B000032707FA0CF7B943470002FA07F7394301
:1058C000471CB8B21028EDD3A160F0BD10B50D484B
:1058D000006888B10B480068B0F5FA7F03D2002059
:1058E000FFF740FF02E00020FFF730FF05480068A7
:1058F000401E0449086003E04FF47A7001490860D3
:1059000010BD00000000002000F0E2FA0020FFF7C8
:10591000F3FE0120FFF7F0FE0220FFF7EDFE1F4827
:10592000FFF73AFE00210846FFF796FE002000F040
:10593000ADF8044621461AA0FFF7D8FC012000F07C
:10594000A5F8044621461AA0FFF7D0FC022000F07B
:105950009DF8044621461AA0FFF7C8FC032000F07A
:1059600095F8044621461AA0FFF7C0FC00214FF02D
:10597000806000F07DF810E00020FFF7ADFE60B918
:105980000120FFF7EFFE4FF4FA70FFF779FD0120D9
:10599000FFF7DCFE0220FFF7F1FEEDE700440040D8
:1059A0000D0A434B5F53595320697320256400004F
:1059B0000D0A434B5F414842206973202564000073
:1059C0000D0A434B5F41504231206973202564002A
:1059D0000D0A434B5F415042322069732025640019
:1059E000F0B50B460021002400251F4E366806F452
:1059F000E066B6F5A06F13D006DCB6F5407F15D093
:105A0000B6F5806F15D10EE0B6F5C06F05D0B6F5CE
:105A1000E06F0ED1002404250CE00124032509E0E9
:105A20000224022506E00324012503E004240025C6
:105A300000E000BF00BFC4F1040603FA06F1C5F19F
:105A400004070F26FE40164031430901074E31542A
:105A500000F01F070126BE4047114FF0E02C0CEB71
:105A60008707C7F80061F0BD0CED00E000E400E03E
:105A700010B50022044B5A6822F0774242EA000334
:105A80000B43014C636010BD001002402DE9F04F44
:105A900092B0844600231193109300240020002527
:105AA00080460F9300210E930D930C9300220B93CD
:105AB0000A930993089381460026002788A393E858
:105AC000004CDB68CDE905BECDF810A007930FF2BE
:105AD000142ADAE9003ACDE9023A0FF2082ADAE9A3
:105AE000003ACDE9003A824B5B68C3F3810311931E
:105AF000119B23B1012B04D0022B3ED103E07D4D3D
:105B00003DE07C4D3BE07A4B5B68C3F38342784BCE
:105B10005B68C3F3C0630B93754BDB6ADB0F0A93BF
:105B20000B9B0BB1113200E0921C0A9B012B00D1A0
:105B30001F326F4B5B68C3F3004309936C4BDB6A06
:105B4000C3F380730893099B9BB1694BDB6A03F035
:105B50000F0303F10109089B2BB9664BB3FBF9F363
:105B600003FB02F508E0644BB3FBF9F303FB02F51A
:105B700002E0624B02FB03F501E05E4D00BF00BF97
:105B80005B4B5B68C3F3031604AB9F5D25FA07F814
:105B9000574B5B68C3F3022602AB9F5D28FA07F3FD
:105BA0000F93534B5B68C3F3C2261DF8067028FAA7
:105BB00007F1BCF1070F72D2DFE80CF00406080A07
:105BC0000C5B6A00284687E0404685E00F9883E03A
:105BD000084681E0464B1B6B03F48073B3F5807F6E
:105BE0000CD0434B1B6B03F48033B3F5803F02D0E2
:105BF000434B0E933BE0434B0E9338E03C4B5B68CA
:105C0000C3F3813310933A4B1B6BDC0F109B33B102
:105C1000012B0DD0022B14D0032B26D11CE014B97C
:105C20004B080E9303E00323B1FBF3F30E931DE047
:105C300014B98B080E9303E00523B1FBF3F30E9325
:105C400014E024B90623B1FBF3F30E9303E007231A
:105C5000B1FBF3F30E9309E014B9CB080E9303E004
:105C60000923B1FBF3F30E9300E000BF00BF0E98D1
:105C700032E01F4B1B6B03F04003402B03D048F274
:105C800012030D9302E04FF400430D930D9823E0AF
:105C9000174B1B6B13F0030F02D10C9119E01AE0A4
:105CA000134B1B6B03F00303012B01D10C9510E088
:105CB0000F4B1B6B03F00303022B02D19B030C93CE
:105CC00007E00B4B1B6B03F00303032B01D1094BC4
:105CD0000C930C9800E000BF00BF12B0BDE8F08F3D
:105CE000000000000000000001020304060708098C
:105CF0000010024000127A00006CDC0200093D0036
:105D0000809FD500003FAB01064901EB9011096867
:105D100000F01F0301229A401143024A02EB901245
:105D20001160704700100240064901EB90110968AC
:105D300000F01F0301229A409143024A02EB9012A5
:105D40001160704700100240064901EB901109688C
:105D500000F01F0301229A401143024A02EB901205
:105D6000116070470010024070B504460B46CD1715
:105D700001EB9575AD10A1EB8505AE000F25B54083
:105D8000E843CD1701EB9575AD10A1EB8505AD008E
:105D900004FA05F2CD1701EB9575AD1006D0012D73
:105DA0000ED0022D16D0032D28D11DE0154B9B6877
:105DB0000340144DAB602B469B681343AB601EE061
:105DC000104BDB6803400F4DEB602B46DB68134341
:105DD000EB6014E00B4B1B6903400A4D2B612B4613
:105DE0001B6913432B610AE0064B5B690340054DB9
:105DF0006B612B465B6913436B6100E000BF00BF22
:105E000070BD000000000140002000212B4A1268F4
:105E100042F48032294B1A6000BF401C274A1268A6
:105E200002F4003111B9B0F5006FF6D1234A1268BF
:105E300012F4003F00D17047204A52681F4B5A604D
:105E40001A46526842F400525A601A46526842F4A6
:105E500080625A601A465268194B1A40174B5A60B2
:105E60001A46D26A22F04042DA621A46D26A42F0F8
:105E70000102DA621A465268124B1A430F4B5A60FB
:105E80001A46126842F080721A6000BF0B4A12680C
:105E900012F0007FFAD0094A526822F00302074B41
:105EA0005A601A46526842F002025A6000BF034A22
:105EB000526812F0080FFAD000BFBCE70010024091
:105EC000FFFFC2770000290810B5FFF79DFF10BD46
:105ED00010B5124800684FF47A71B0FBF1F4601EFF
:105EE000B0F1807F01D301200FE0601E4FF0E02170
:105EF00048610F214FF0FF30FFF776F900204FF097
:105F0000E021886107200861002008B100BFFEE79A
:105F10000021481EFFF768F910BD000008000020AE
:105F20002DE9F04704460D460027B846B94600263D
:105F30001B48201807D0B0F5744F09D10620FFF791
:105F4000A5FD074605E00220FFF7A0FD074600E09B
:105F500000BF00BF206810F4004F10D0780000EBA5
:105F60005500B0FBF5F64FF6F07006EA000806F0B3
:105F70000709E16848EA09000143E1600EE007EB28
:105F80005500B0FBF5F64FF6F07006EA000806F093
:105F90000F09E16848EA09000143E160BDE8F087C4
:105FA00000BCFFBFC1F308028262704710B504460F
:105FB0000D4820180BD0B0F5744F11D140F20E30BF
:105FC000FFF7C2FE40F20E30FFF7AEFE09E040F2EE
:105FD0001140FFF7B9FE40F21140FFF7A5FE00E0C7
:105FE00000BF00BF10BD000000BCFFBF016841F052
:105FF00001010160704710B5024602EB9110006884
:1060000001F01F040123A340184201D0012010BD5C
:106010000020FCE7026822F00402026002680A43E2
:1060200002607047026822F00802026002680A43B8
:106030000260704754600008000000207C000000EF
:106040000C530008D06000087C000020040400000D
:106050001C530008000000000000000000F36F0661
:1060600000080048000800480008004800080048F0
:106070000004000000080000001000000400000000
:1060800011070000040000000800000013051305BC
:1060900013051305000000480008004800140048DC
:1060A0000100000000200000800000001105130521
:1060B0001605000001000000002000008000000024
:1060C000000205000D0705070700000000000000A2
:04000005080051514D
:00000001FF
